S010000072665F626C696E6B2E73726563CD
S11300000EC015C014C013C012C011C010C00FC060
S11300100EC00DC00CC00BC00AC009C008C011241A
S11300201FBECFE5D2E0DEBFCDBF59D067C0E8CF59
S1130030882341F0E7ECF0E03197F1F700C00000CD
S11300408150C1F70895CF93C82F8FE388BB8C2FBD
S1130050EFDF18BA8C2FECDFCF910895CF93CAE06D
S113006081E0F1DF82E0EFDF83E0EDDFC150C1F733
S113007083E0E9DFCF910895CF93C5E083E0E3DF28
S1130080C150E1F7CF9108950F931F93CF93DF935E
S11300908C01C0E0D0E098010C2E02C03595279564
S11300A00A94E2F720FF03C082E0CDDF02C081E0C2
S11300B0CADF2196C830D10571F7DF91CF911F9126
S11300C00F910895CF93DF93EC01DEDFCE0180958D
S11300D09095DADF83E0B7DFDF91CF9108958FE366
S11300E087BB00E010E0BADFC02FD12FCE01EADFDA
S11300F02196C83CD105D1F7BFDFF5CFF894FFCFE7
S9030000FC
